:0400000000EF73F0AA
:10E3D0000100016E01C083FF1200030EC26E0D0E1C
:10E3E000C16E810EC06E1200016E01B002D08B9022
:10E3F00001D08B801200016E01B002D08B9401D04D
:10E400008B841200016E01B002D08D9001D08D80FE
:10E410001200036E000E026E3A0E036005D02F0E3E
:10E42000036402D0010E026E02C001F0013012003E
:10E43000015002100310D8B406D0000E011A000ECD
:10E44000021A800E031A01C001F002C002F003C0DC
:10E4500003F0120009C001F00AC002F0036A8E0E38
:10E46000046E000E056EA9EC76F001C009F002C042
:10E470000AF003C00BF0120061EC72F0EDEC71F0E9
:10E48000ECEC73F0AEEC7AF0040E0001D019000150
:10E49000D111D8A4F7D70DEC75F0F4D701500302D1
:10E4A000F3CF05F0F4CF06F001500402F350062636
:10E4B00002500302F350062605C001F006C002F028
:10E4C0001200230E926E0F0E936E000E946E000ECD
:10E4D000956E000E966E000E896E000E8A6E000E0E
:10E4E0008B6E000E8C6E000E8D6E1200066E848296
:10E4F0000650E9EC71F08494000E026E030E016E7A
:10E50000E5EC72F08492000E026E030E016EE5ECF3
:10E5100072F084821200066E84820650E9EC71F07B
:10E520008484000E026E030E016EE5EC72F084929C
:10E53000000E026E030E016EE5EC72F08482120092
:10E54000000E0001D16F000ED06FC00E76EC72F09D
:10E550009A0E076EFF0E086E4AEC75F0030E026EFF
:10E56000E80E016EE5EC72F0120081B202D0010EED
:10E57000120081B402D0020E120081B602D0030E46
:10E58000120081B002D0040E120080BA02D0050E33
:10E590001200000E1200056E05B002D0C29401D028
:10E5A000C284C282C2B2FED7C3CF06F0076AC4508B
:10E5B000046E036A06500324066E07500420076E9B
:10E5C00006C001F007C002F01200000E046E000E3B
:10E5D000036E0FD0000E056EC70E056401D007D084
:10E5E00000F000F000F000F000F0052AF5D7034A33
:10E5F000042A0150035C02500458D8B01200EAD734
:10E60000D00EF66EE30EF76E000EF86E0900F5CF31
:10E6100071F00900F5CF72F000EED0F0230EEE6A33
:10E62000E806FDE100EE5AF0170EEE6AE806FDE19D
:10E63000000EF86E00013CEF72F039503A103B10BA
:10E64000D8B406D0000E391A000E3A1A800E3B1AC2
:10E6500036C02AF037C02BF038C02CF039C02DF06E
:10E660003AC02EF03BC02FF0D8EC79F02AC036F03B
:10E670002BC037F02CC038F0120003500410D8B46F
:10E6800018D0010E056E04D0D89003360436052A42
:10E6900004AEFAD70350015C04500258D8A004D04D
:10E6A0000350015E0450025AD89004320332052E02
:10E6B000F1D701C001F002C002F0120011C017F042
:10E6C00012C018F014AE0CD011C0D9FF12C0DAFF7E
:10E6D0002D0EDF6E114A122A136C141ED8B0142AA4
:10E6E00011C008F012C009F013C00AF014C00BF0FA
:10E6F00015C00CF016C00DF057EC76F0120001C0FA
:10E7000005F002C006F002D0054A062A05C0D9FF6E
:10E7100006C0DAFFDF50D8B405D0F6D7054A062A7E
:10E72000034A042A03C0D9FF04C0DAFF05C0E1FF91
:10E7300006C0E2FFDFCFE7FFE750D8B41200EED704
:10E7400001C005F002C006F004D0054A062A034ABB
:10E75000042A03C0F6FF04C0F7FF000EF86E05C0E0
:10E76000D9FF06C0DAFF0F0EF76403D00800F5509A
:10E7700005D0F6CFE9FFF7CFEAFFEF50DF6EDF50AD
:10E78000D8B41200E2D7000E066E000E056E0350DC
:10E790000410D8B41CD0010E076E04D0D8900336F4
:10E7A0000436072A04AEFAD7D89005360636035049
:10E7B000015C04500258D8A005D00350015E0450FB
:10E7C000025A0580D89004320332072EEDD705C0D7
:10E7D00001F006C002F0120084928494000E026ED2
:10E7E000140E016EE5EC72F08482380E76EC72F055
:10E7F000000E026E050E016EE5EC72F0380E76EC3E
:10E8000072F0000E026E010E016EE5EC72F0380E31
:10E8100076EC72F0080E76EC72F00F0E76EC72F079
:10E82000010E76EC72F0380E76EC72F0800E76EC1B
:10E8300072F012008E0E116E06D0D8900C320B3290
:10E840000A320932112A000E09140D6E000E0A1444
:10E850000E6E000E0B140F6EFF0E0C14106E0D508A
:10E860000E100F101010D8A4E8D709C001F00AC08C
:10E8700002F00BC003F011C004F0000E056EA9EC0D
:10E8800076F001C009F002C00AF003C00BF01200DC
:10E89000026E0204D8A405D001B002D08A9801D03B
:10E8A0008A88020E0218D8A405D001B002D08A9A34
:10E8B00001D08A8A030E0218D8A405D001B002D074
:10E8C0008A9C01D08A8C040E0218D8A405D001B00D
:10E8D00002D08B9201D08B82050E0218D8A41200B0
:10E8E00001B002D0819E01D0818E1200000E0B6E0D
:10E8F000000E0A6E1FD0B5EC72F0096E09500001CF
:10E90000D06FD16B040E0001D0190001D111D8B421
:10E910001200050E0001D0190001D111D8B4120067
:10E92000210E096E760EE82EFED7092EFCD700D0F8
:10E930000A4A0B2A07500A5C0B50800A096E0850DD
:10E94000800A0958D8B01200D6D7125013101410EC
:10E950001510D8B424D0010E166E06D0D8901236F9
:10E96000133614361536162A15AEF8D712500E5C2B
:10E9700013500F581450105815501158D8A008D0E3
:10E9800012500E5E13500F5A1450105A1550115A4F
:10E99000D8901532143213321232162EE7D70EC029
:10E9A0000EF00FC00FF010C010F011C011F01200E7
:10E9B000040E0001D0190001D111D8B41200010ECB
:10E9C000016E040E48EC74F0010EFBEC71F0010EC8
:10E9D00002EC72F0010E76EC72F0800E76EC72F0C2
:10E9E000F90E076EFF0E086E4AEC75F01FC019F0A5
:10E9F00020C01AF000EC77F0000EFBEC71F0000E76
:10EA000002EC72F0000E016E040E48EC74F0000E81
:10EA1000016E050E48EC74F01200000E726E000ECE
:10EA2000716E000E016E010E48EC74F0000E016E66
:10EA3000020E48EC74F0000E016E030E48EC74F008
:10EA4000000EF4EC71F0010E02EC72F0010E76ECA7
:10EA500072F0800E76EC72F05C0E076EFF0E086EA0
:10EA60004AEC75F0C00E76EC72F03B0E076EFF0EAE
:10EA7000086E4AEC75F0030E026EE80E016EE5ECCE
:10EA800072F0000E02EC72F0000E016E050E48EC02
:10EA900074F01200000E0B6E1ED00B50010D07C05B
:10EAA00009F008C00AF0F3500926F4500A2209C000
:10EAB000F6FF0AC0F7FF000EF86E0F0EF76403D0E2
:10EAC0000800F55005D0F6CFE9FFF7CFEAFFEF5089
:10EAD0008BEC72F00B2A0B50010D07C009F008C037
:10EAE0000AF0F3500926F4500A2209C0F6FF0AC0C2
:10EAF000F7FF000EF86E0F0EF76403D00800F55014
:10EB000005D0F6CFE9FFF7CFEAFFEF500009D8B400
:10EB10001200C3D7000E096E000E0A6E000E0B6EB7
:10EB2000000E0C6E0550061007100810D8B42AD03D
:10EB3000010E0D6E06D0D89005360636073608361B
:10EB40000D2A08AEF8D7D89009360A360B360C369F
:10EB50000550015C065002580750035808500458ED
:10EB6000D8A009D00550015E0650025A0750035A3A
:10EB70000850045A0980D89008320732063205320C
:10EB80000D2EE1D709C001F00AC002F00BC003F05E
:10EB90000CC004F01200000ECBEC72F001C03CF08F
:10EBA00002C03DF0000E1E6E800E1F6E440E206EE1
:10EBB000000E0F6E280E106E410E116E3CC009F053
:10EBC0003DC00AF02AEC72F009C00CF00AC00DF04A
:10EBD0000BC00EF0D7EC77F00CC01BF00DC01CF092
:10EBE0000EC01DF064EC77F01BC02AF01CC02BF0A7
:10EBF0001DC02CF0000E2D6E000E2E6EC00E2F6E5E
:10EC0000D8EC79F02AC039F02BC03AF02CC03BF098
:10EC100039C036F03AC037F03BC038F0120038AE99
:10EC200016D036C03CF037C03DF038C03EF03C1E38
:10EC30003D1E3E1E3C2A000E3D223E22000E3C247C
:10EC4000366E000E3D20376E800E3E20386E3BAE95
:10EC500016D039C03CF03AC03DF03BC03EF03C1EFF
:10EC60003D1E3E1E3C2A000E3D223E22000E3C244C
:10EC7000396E000E3D203A6E800E3E203B6E000E37
:10EC8000361A000E371A800E381A000E391A000E86
:10EC90003A1A800E3B1A3950365C3A5037583B507E
:10ECA0003858D8B002D0D8901200D88012000AC0CC
:10ECB0000EF00BC00FF00EC001F00FC002F00CC040
:10ECC00003F00DC004F0C3EC73F001C00EF002C0FD
:10ECD0000FF0084A092A0E500F10D8A4ECD708C02C
:10ECE000D9FF09C0DAFF000EDF6E0806D8A00906BA
:10ECF0000AC001F00BC002F00CC003F00DC004F01C
:10ED00003DEC73F00150106E0AC001F00BC002F030
:10ED10000CC003F00DC004F0C3EC73F001C00AF0A6
:10ED200002C00BF0090E106402D0070E1026300E40
:10ED3000102608C0D9FF09C0DAFF10C0DFFF08069F
:10ED4000D8A009060A500B10D8A4D2D7084A092A1D
:10ED500012000450D8B405D0015002100310D8A4FA
:10ED60000CD0000E016E000E026E000E036E12003B
:10ED7000042AD890033202320132000E0114066ECA
:10ED8000000E0214076EFE0E0314086E06500710E4
:10ED90000810D8B40CD0ECD7042A010E0126000EBE
:10EDA0000222000E0322D890033202320132000EFA
:10EDB0000114066E000E0214076EFF0E0314086E97
:10EDC000065007100810D8B406D0E6D70406D8902D
:10EDD00001360236033602BE03D0020E0460F6D7B7
:10EDE00004A0029ED8900432045003120550D8A407
:10EDF000038E01C001F002C002F003C003F0120054
:10EE0000000E1E6E000E1D6E58D0040E0001D019AB
:10EE10000001D111D8B41200050E0001D019000173
:10EE2000D111D8B4A0EC72F0C00E76EC72F0E30E03
:10EE3000016E000E026EB40E036EFF0E046EA0ECA7
:10EE400073F0610E116E000E126E1DC01BF01EC01D
:10EE50001CF01B1E1C1E1B4A1C2A19501B24136E5F
:10EE60001A501C20146E000E166E0A0E156E5EEC03
:10EE700073F0E30E016E000E026E610E036E000E63
:10EE8000046E7FEC73F0E30E076E000E086E4AEC22
:10EE900075F0010E1D24016E000E1E20026E000E84
:10EEA000046E640E036E4EEC72F001C007F002C0F7
:10EEB00008F076EC74F01D4A1E2A19501D5C1A5099
:10EEC0001E58D8B01200A1D71DC021F0226A236AB3
:10EED0001C34213601E322802150286E2850D8A40A
:10EEE00007D0000E1B6E000E1C6E000E1D6E120071
:10EEF00020C021F0226A236A1F34213601E32280D8
:10EF00002150296E2950D8A407D0000E1B6E000E88
:10EF10001C6E000E1D6E1200000E256E000E266E79
:10EF2000000E276E2950890F285E1DC029F0205041
:10EF3000291A800E29161C8EFF0E1B16FF0E1C169A
:10EF4000000E1D161F8EFF0E1E16FF0E1F16000E42
:10EF50002016180E246ED8902536263627361E50D9
:10EF60001B5C1F501C5820501D58D8A007D01E50A5
:10EF70001B5E1F501C5A20501D5A2580D8901B36EE
:10EF80001C361D36242EE7D725C001F026C002F01E
:10EF900027C003F028C004F029C005F0A9EC76F0E2
:10EFA00001C01BF002C01CF003C01DF012000EC017
:10EFB00012F0136A146A0D34123601E313801250F2
:10EFC000156E1550D8A407D0000E0C6E000E0D6EF5
:10EFD000000E0E6E120011C012F0136A146A103483
:10EFE000123601E3138012501A6E1A50D8A407D0BB
:10EFF000000E0C6E000E0D6E000E0E6E12001A50FA
:10F000007B0F15260EC01AF011501A1A800E1A1610
:10F010000D8E108EFF0E0F16FF0E1016000E11161D
:10F02000000E166E000E176E000E186E070E196E8B
:10F030000CA006D00F50162610501722115018227F
:10F04000D8900E320D320C32D8900F361036113661
:10F05000192EEED7090E196E0CA006D00F501626E9
:10F060001050172211501822D8900E320D320C3247
:10F07000D890183217321632192EEED716C001F07A
:10F0800017C002F018C003F015C004F01AC005F054
:10F09000A9EC76F001C00CF002C00DF003C00EF038
:10F0A00012001DC01FF0206A216A1C341F3601E3C4
:10F0B00020801F50296E2950D8A409D0000E1B6E45
:10F0C000000E1C6E000E1D6E000E1E6E1200170E3E
:10F0D0001F6E1BC020F01CC021F01DC022F01F2895
:10F0E000236E04D0D890223221322032232EFAD738
:10F0F0002050246E1C8EFF0E1B16FF0E1C16000ED9
:10F100001D161B50256E1C50266E1D50276E286A3A
:10F110008E0E295E29AE16D02950800A8F0FD8B0E6
:10F1200009D0000E1B6E000E1C6E000E1D6E000E30
:10F130001E6E1200D8902832273226322532293E00
:10F14000F9D715D0170E29640FD0000E1B6E000ED4
:10F150001C6E000E1D6E000E1E6E1200D89025361D
:10F1600026362736283629062950D8A4F7D7245022
:10F17000D8B408D0281E271E261E256C000E262275
:10F180002722282225C01BF026C01CF027C01DF016
:10F1900028C01EF0120072D0000E4B6EF00E4C6EA6
:10F1A000400E4D6E000E4F6E050E4E6E010E4FEC72
:10F1B0007DF0000E016E050E48EC74F0000E4B6EF3
:10F1C000F00E4C6E400E4D6E000E4F6E030E4E6EE6
:10F1D000020E4FEC7DF0000E206E020E1F6ED8EC7A
:10F1E00074F01200000E4B6EA00E4C6E400E4D6E71
:10F1F000000E4F6E030E4E6E010E4FEC7DF0000EB2
:10F20000016E050E48EC74F0000E4B6EA00E4C6EB5
:10F21000400E4D6E000E4F6E010E4E6E020E4FEC04
:10F220007DF0000E206E010E1F6ED8EC74F01200FF
:10F23000000E4B6EA00E4C6E400E4D6E000E4F6ECB
:10F24000040E4E6E010E4FEC7DF0000E016E050EA9
:10F2500048EC74F0000E4B6EA00E4C6E400E4D6EDE
:10F26000000E4F6E020E4E6E020E4FEC7DF0000E41
:10F27000206E010E1F6ED8EC74F0120054C056F0D0
:10F2800055C057F05750000AD8A412005650010A32
:10F29000D8B482D7030AD8B4A5D7010AD8A41200DB
:10F2A000C7D7D20E496E000E4A6E3EAE16D049C088
:10F2B000D9FF4AC0DAFF2D0EDF6E494A4A2A3CC008
:10F2C00001F03DC002F03EC003F018EC72F001C046
:10F2D0003CF002C03DF003C03EF03CC01BF03DC01E
:10F2E0001CF03EC01DF051EC78F01BC045F01CC076
:10F2F00046F01DC047F01EC048F03CC036F03DC08F
:10F3000037F03EC038F045C009F046C00AF047C0AB
:10F310000BF048C00CF01AEC74F009C039F00AC0C8
:10F320003AF00BC03BF01DEC73F036C03CF037C038
:10F330003DF038C03EF0240E0F6E740E106E490E74
:10F34000116E3CC00CF03DC00DF03EC00EF0D7EC8D
:10F3500077F00CC01BF00DC01CF00EC01DF051EC7E
:10F3600078F01BC041F01CC042F01DC043F01EC02D
:10F3700044F049C017F04AC018F0C00E196EFF0ED5
:10F380001A6E45C01BF046C01CF047C01DF048C0B7
:10F390001EF041C01FF042C020F043C021F044C025
:10F3A00022F0B9EC7BF0D20E3C6E000E3D6E1200E6
:10F3B0002CC030F0316A326A2B34303601E33180B0
:10F3C0003050356E2FC030F0316A326A2E3430360C
:10F3D00001E331803050346E3550D8B40BD0345006
:10F3E000355CD8B00ED0355000083424306E180E7D
:10F3F000306407D02DC02AF02EC02BF02FC02CF087
:10F4000012003450D8B40BD03550345CD8B00ED084
:10F41000345000083524306E180E306407D02AC0EE
:10F420002AF02BC02BF02CC02CF01200060E336EED
:10F430002CBE338E2FBE338C2B8EFF0E2A16FF0E62
:10F440002B16000E2C162E8EFF0E2D16FF0E2E16CE
:10F45000000E2F163450355CD8B01BD0D8902D3606
:10F460002E362F36340635503418D8B40DD0330626
:10F4700033C030F0070E3016D8B406D0EFD7D8908E
:10F480002C322B322A32352A34503518D8B41FD0BA
:10F49000F6D73550345CD8B01AD0D8902A362B36EF
:10F4A0002C36350635503418D8B40DD0330633C059
:10F4B00030F0070E3016D8B406D0EFD7D8902F32E0
:10F4C0002E322D32342A34503518D8A4F7D733AE23
:10F4D0000CD0FF0E2A1AFF0E2B1AFF0E2C1A010E4B
:10F4E0002A26000E2B22000E2C2233AC0CD0FF0E4D
:10F4F0002D1AFF0E2E1AFF0E2F1A010E2D26000EAA
:10F500002E22000E2F22000E336E2A502D262B5055
:10F510002E222C502F222FAE0ED0FF0E2D1AFF0EB2
:10F520002E1AFF0E2F1A010E2D26000E2E22000E6F
:10F530002F22010E336E2DC001F02EC002F02FC01D
:10F5400003F035C004F033C005F0A9EC76F001C03B
:10F550002AF002C02BF003C02CF01200000E726ED5
:10F56000010E716E800E016E000E026E8C0E036E27
:10F57000FF0E046EA0EC73F0940E016E000E026E8E
:10F58000CB0E036EFF0E046EA0EC73F0A80E016E9E
:10F59000000E026EA70E036EFF0E046EA0EC73F059
:10F5A000BC0E016E000E026EDF0E036EFF0E046EC7
:10F5B000A0EC73F0010E76EC72F0800E76EC72F037
:10F5C000800E076E000E086E4AEC75F0C00E76ECE9
:10F5D00072F0940E076E000E086E4AEC75F0000E85
:10F5E000726E010E716EB5EC72F0A9D0030E711837
:10F5F0007210D8A41AD0000E726E020E716E010E37
:10F6000076EC72F0C00E76EC72F0BC0E076E000E57
:10F61000086E4AEC75F0800E76EC72F0A80E076E5C
:10F62000000E086E4AEC75F088D0020E7118721048
:10F63000D8A483D0000E726E010E716E010E76ECAE
:10F6400072F0800E76EC72F0800E076E000E086E7F
:10F650004AEC75F0C00E76EC72F0940E076E000E58
:10F66000086E4AEC75F069D071047210D8A41AD0F3
:10F67000000E726E020E716E010E76EC72F0C00E0C
:10F6800076EC72F0BC0E076E000E086E4AEC75F058
:10F69000800E76EC72F0A80E076E000E086E4AEC33
:10F6A00075F04BD0020E71187210D8A446D0000E1F
:10F6B000726E030E716E010E76EC72F0800E76ECB7
:10F6C00072F0A80E076E000E086E4AEC75F0C00EC0
:10F6D00076EC72F0BC0E076E000E086E4AEC75F008
:10F6E0002CD0010E76EC72F0800E76EC72F0800E6B
:10F6F000076E000E086E4AEC75F0C00E76EC72F0E4
:10F70000940E076E000E086E4AEC75F0000E726ED5
:10F71000010E716E12D0D0C058F0D1C059F05950BE
:10F72000000AD8A40AD05850010AD8B45FD7030AF7
:10F73000D8B49AD7060AD8B4D4D7B5EC72F0586EBC
:10F7400058500001D06FD16B030E0001D019000199
:10F75000D111D8A4E0D7030E0001D0190001D111B6
:10F76000D8A4120071C054F072C055F0CBEC78F000
:10F7700012001B0E286E000E296E7ED1250E321847
:10F78000D8B409D017C0D9FF18C0DAFF32C0DFFFE4
:10F79000174A182A71D1000E2F6E000E2E6E000E21
:10F7A000276E19C0F6FF1AC0F7FF0800F55009ECE4
:10F7B00072F0D8A032D0000E2F6E000E2E6E2EC02A
:10F7C00001F02FC002F0000E046E0A0E036E4EEC24
:10F7D00072F001C02EF002C02FF0D00E236EFF0E8B
:10F7E000246E19C0F6FF1AC0F7FF0800F550256E09
:10F7F000266A235025262450262225502E262650C0
:10F800002F22194A1A2A19C0F6FF1AC0F7FF08005A
:10F81000F55009EC72F0D8B0D2D719C0F6FF1AC073
:10F82000F7FF0800F5502E0AD8A42DD0194A1A2A3D
:10F83000000E316E000E306E1BD030C001F031C0B2
:10F8400002F0000E046E0A0E036E4EEC72F019C048
:10F85000F6FF1AC0F7FF0800F5500126000E02223D
:10F86000D00E0124306EFF0E0220316E194A1A2A82
:10F8700019C0F6FF1AC0F7FF0800F55009EC72F046
:10F88000D8A00BD0DAD7000E316E000E306E05D046
:10F89000278803D0C00E271214D019C0F6FF1AC053
:10F8A000F7FF194A1A2A0800F5CF32F03250000A41
:10F8B000D8B4EED06C0AD8B4EBD7190AD8B4EAD7CA
:10F8C000DBD027A80ED028C0D9FF29C0DAFFDECFB1
:10F8D0002AF0DECF2BF0DECF2CF0DECF2DF0040EA1
:10F8E0000FD028C0D9FF29C0DAFFDECF23F0DDCF4B
:10F8F00024F023C02AF024C02BF02C6A2D6A020EBB
:10F900002826000E292230503110D8A408D02A50C1
:10F910002B102C102D10D8A402D0304A312A010E01
:10F92000326E0A0E3218D8B418D03250040DF10ECF
:10F93000F324F66EFE0EF420F76E0900F5502A5CF3
:10F940000900F5502B580900F5502C580900F550C6
:10F950002D58D8A002D0322AE4D7800E32BE7F0EB6
:10F96000236E3050325C3150800A2358D8B003D017
:10F9700030C032F010D03150800A236E3250305CEB
:10F98000800E32BE7F0E2358D8B005D03250306E74
:10F99000316A30BE3106800E32BE7F0E236E2E508D
:10F9A000325C2F50800A2358D8B007D032502E5ED8
:10F9B000000E32BEFF0E2F5A04D0000E2F6E000E26
:10F9C0002E6E2E502F10D8B44FD017C0D9FF18C0AC
:10F9D000DAFF200EDF6E174A182A2E06D8A02F064F
:10F9E000F0D730C023F031C024F0D890233624362D
:10F9F000D89023362436F10E2324F66EFE0E2420F2
:10FA0000F76E0900F5CF05F00900F5CF06F0090003
:10FA1000F5CF07F00A00F5CF08F02AC001F02BC09F
:10FA200002F02CC003F02DC004F08AEC75F001C088
:10FA30000EF002C00FF003C010F004C011F00A0E67
:10FA4000126E000E136E000E146E000E156EA5ECF5
:10FA500074F00E50300F326E17C0D9FF18C0DAFFA5
:10FA600032C0DFFF174A182A3006D8A031063028E6
:10FA7000B8E13128D8A4B5D719C0F6FF1AC0F7FFEE
:10FA8000194A1A2A0800F5CF32F03250D8A476D697
:10FA900017C0D9FF18C0DAFF000EDF6E1200536ED8
:10FAA000040E0001D0190001D111D8B41200010ECA
:10FAB000F4EC71F0010E76EC72F0800E76EC72F0E0
:10FAC0004C0E076EFF0E086E4AEC75F0C00E76EC19
:10FAD00072F06C0E076EFF0E086E4AEC75F0B5EC16
:10FAE00072F0506E50500001D06FD16B0ED0B5EC5B
:10FAF00072F0506E50500001D06FD16B040E0001B7
:10FB0000D0190001D111D8B407D0050E0001D019C9
:10FB10000001D111D8A4EBD7CBEC75F036C05AF068
:10FB200037C05BF038C05CF04BC036F04CC037F0EB
:10FB30004DC038F05AC039F05BC03AF05CC03BF0C1
:10FB40000FEC76F0D8A071D0040E0001D01900019E
:10FB5000D111D8B46AD0010E76EC72F0800E76EC3A
:10FB600072F02A0E076EFF0E086E4AEC75F04DD04B
:10FB7000B5EC72F0506E50500001D06FD16B040E96
:10FB80000001D0190001D111D8B44FD05AC03CF0B7
:10FB90005BC03DF05CC03EF0510E3F6E000E406E0B
:10FBA00051EC79F03CC05FF03DC060F0E30E016EB7
:10FBB000000E026E5FC003F060C004F0A0EC73F0B2
:10FBC000610E016E000E026EE80E036EFF0E046EF3
:10FBD000A0EC73F0610E016E000E026EE30E036E78
:10FBE000000E046E7FEC73F0C00E76EC72F0610EC6
:10FBF000076E000E086E4AEC75F0CBEC75F036C05F
:10FC00005AF037C05BF038C05CF04BC036F04CC0E7
:10FC100037F04DC038F05AC039F05BC03AF05CC0E4
:10FC20003BF00FEC76F0D8B0A3D7CD0E2D6ECC0EF6
:10FC30002E6E3D0E2F6E4BC02AF04CC02BF04DC0E7
:10FC40002CF0D8EC79F02AC036F02BC037F02CC05D
:10FC500038F05AC039F05BC03AF05CC03BF00FECB2
:10FC600076F0D8B051D0040E0001D0190001D111A6
:10FC7000D8B44AD0010E76EC72F0800E76EC72F0B9
:10FC80002A0E076EFF0E086E4AEC75F0C00E76EC79
:10FC900072F07C0E076EFF0E086E4AEC75F016D0FF
:10FCA000B5EC72F0506E50500001D06FD16B040E65
:10FCB0000001D0190001D111D8B426D0CBEC75F0D9
:10FCC00036C05AF037C05BF038C05CF0CD0E2D6EF8
:10FCD000CC0E2E6E3D0E2F6E4BC02AF04CC02BF07A
:10FCE0004DC02CF0D8EC79F02AC036F02BC037F09C
:10FCF0002CC038F05AC039F05BC03AF05CC03BF021
:10FD00000FEC76F0D8A0CCD7000EF4EC71F0040E16
:10FD10000001D0190001D111D8B41200010E016EFA
:10FD2000050E48EC74F0010E016E535048EC74F06F
:10FD30005304D8A463D0010E76EC72F0800E76ECFA
:10FD400072F071047210D8A407D0CF0E076EFF0EA8
:10FD5000086E4AEC75F012D0020E71187210D8A419
:10FD600007D0AB0E076EFF0E086E4AEC75F006D09A
:10FD7000E20E076EFF0E086E4AEC75F04BC03CF0C9
:10FD80004CC03DF04DC03EF0510E3F6E000E406E37
:10FD900051EC79F03CC05FF03DC060F0E30E016EC5
:10FDA000000E026E5FC003F060C004F0A0EC73F0C0
:10FDB000610E016E000E026EE80E036EFF0E046E01
:10FDC000A0EC73F0610E016E000E026EE30E036E86
:10FDD000000E046E7FEC73F0C00E76EC72F0190E1C
:10FDE000076EFF0E086E4AEC75F0C00E76EC72F0EE
:10FDF000610E076E000E086E4AEC75F0000E086E7C
:10FE0000640E076E76EC74F05304D8A423D0040E6D
:10FE10000001D0190001D111D8B41CD0010E016E1F
:10FE2000030E48EC74F0010E76EC72F0800E76EC66
:10FE300072F0D60E076EFF0E086E4AEC75F0000EDB
:10FE40001A6E020E196E00EC77F0000E016E030EB2
:10FE500048EC74F0040E0001D0190001D111D8B49F
:10FE600022D0010EFBEC71F0010E76EC72F0800EE8
:10FE700076EC72F05304D8A407D0F40E076EFF0E90
:10FE8000086E4AEC75F006D0EE0E076EFF0E086E97
:10FE90004AEC75F04EC019F04FC01AF000EC77F044
:10FEA000000EFBEC71F0040E0001D0190001D1111D
:10FEB000D8B41200010E02EC72F0010E76EC72F072
:10FEC000800E76EC72F05C0E076EFF0E086E4AEC48
:10FED00075F04EC019F04FC01AF000EC77F0000E2C
:10FEE00002EC72F0000E016E535048EC74F01200F8
:10FEF00000010000000A00000064000000E80300A8
:10FF00000010270000A086010040420F0080969854
:10FF10000000E1F50500CA9A3B2020202020202087
:10FF20002020202020202020200020202020576179
:10FF3000726E696E6721202020200052656D616914
:10FF40006E696E673A203120736563006F70656E6D
:10FF50002074686520646F6F722026006472616986
:10FF60006E20746865207761746572007075742006
:10FF700074686520636C6F74686573006D6173737A
:10FF8000206F766572206C696D69740043686F6FCD
:10FF90007365204379636C653A00446F6F72206C1F
:10FFA0006F636B6564210032202D2044656C6963AA
:10FFB0006174650052656D61696E696E673A200013
:10FFC000256C752E25362E366C750031202D204E71
:10FFD0006F726D616C0044697370656E7365003398
:10FFE0002D20517569636B006D6173732000526938
:0FFFF0006E73650057617368007370696E00006F
:020000040020DA
:08000000FFFFFFFFFFFFFFFF00
:020000040030CA
:0E000000FF071F1EFF8385FF0FC00FE00F409C
:00000001FF
