:0400000025EF09F0EF
:0D100000003F065B4F666D7D077F66800038
:10100E000CA209D08380040E086E3E0EE82EFED789
:10101E00082EFCD708D08390040E086E3E0EE82EE4
:10102E00FED7082EFCD70CA011D08382040E086EBA
:10103E003E0EE82EFED7082EFCD78388040E086ECF
:10104E003E0EE82EFED7082EFCD710D08392040E4B
:10105E00086E3E0EE82EFED7082EFCD78398040E9F
:10106E00086E3E0EE82EFED7082EFCD70CA20CB44E
:10107E000BD00CB009D08384040E086E3E0EE82E01
:10108E00FED7082EFCD708D08394040E086E3E0EB1
:10109E00E82EFED7082EFCD70CA411D08386040EA2
:1010AE00086E3E0EE82EFED7082EFCD7838A040E5D
:1010BE00086E3E0EE82EFED7082EFCD71200839641
:1010CE00040E086E3E0EE82EFED7082EFCD7839A2D
:1010DE00040E086E3E0EE82EFED7082EFCD7120028
:1010EE00EBEC08F03AEC09F0C2EC08F00B6E8084E1
:1010FE0020D03F0E836E36D0060E836E81B432D072
:10110E00FBD75B0E836E81B62DD0FBD74F0E836E51
:10111E0081B828D0FBD7660E836E81BA23D0FBD759
:10112E0031EC09F01FD001EC09F01CD013EC09F0E2
:10113E0019D00B50300AD8B4DCD7010AD8B4DED798
:10114E00030AD8B4E0D7010AD8B4E2D7070AD8B454
:10115E00E4D7010AD8B4E4D7030AD8B4E4D7010A15
:10116E00D8B4E4D7040E0A6E3E0EE82EFED70A2E31
:10117E00FCD78094B9D7000E836E81B402D0310EA5
:10118E0019D081B602D0320E15D081B802D0330EEE
:10119E0011D081BA02D0340E0DD081B002D0350EEE
:1011AE0009D081B202D0360E05D080BA02D0370EE9
:1011BE0001D0300E096E040E086E3E0EE82EFED7DC
:1011CE00082EFCD709501200000E806EE30E926EB0
:1011DE00000E816E3F0E936EF19E000E956E000E08
:1011EE00836E000E946E000E826E000E966E000ED2
:1011FE00846E12000CD080948480040E096E3E0E14
:10120E00E82EFED7092EFCD70C8007EC08F081A241
:10121E00F2D70C90849012000CD080948280040E31
:10122E00096E3E0EE82EFED7092EFCD70C8407EC75
:10123E0008F080AAF2D70C94829012000C6A00EE8D
:10124E0001F0070EEE6AE806FDE1000EF86E0001F1
:10125E0077EF08F004D080940C8207EC08F081A0A0
:10126E00FAD70C9212000B0EC16E810EC06E070ED5
:04127E00B46E120038
:020000040020DA
:08000000FFFFFFFFFFFFFFFF00
:020000040030CA
:0E000000FF071F1FFF8385FF0FC00FE00F409B
:00000001FF
